{
  "contractName": "Voting",
  "abi": [
    {
      "anonymous": false,
      "inputs": [
        {
          "indexed": false,
          "internalType": "string",
          "name": "voterName",
          "type": "string"
        },
        {
          "indexed": false,
          "internalType": "address",
          "name": "voterAddress",
          "type": "address"
        },
        {
          "indexed": false,
          "internalType": "string",
          "name": "candidateName",
          "type": "string"
        },
        {
          "indexed": false,
          "internalType": "uint256",
          "name": "timestamp",
          "type": "uint256"
        }
      ],
      "name": "VoteCast",
      "type": "event"
    },
    {
      "anonymous": false,
      "inputs": [
        {
          "indexed": true,
          "internalType": "address",
          "name": "voter",
          "type": "address"
        },
        {
          "indexed": false,
          "internalType": "bytes32",
          "name": "candidate",
          "type": "bytes32"
        }
      ],
      "name": "Voted",
      "type": "event"
    },
    {
      "inputs": [
        {
          "internalType": "string",
          "name": "",
          "type": "string"
        }
      ],
      "name": "cnicVoted",
      "outputs": [
        {
          "internalType": "bool",
          "name": "",
          "type": "bool"
        }
      ],
      "stateMutability": "view",
      "type": "function"
    },
    {
      "inputs": [
        {
          "internalType": "address",
          "name": "",
          "type": "address"
        }
      ],
      "name": "hasVoted",
      "outputs": [
        {
          "internalType": "bool",
          "name": "",
          "type": "bool"
        }
      ],
      "stateMutability": "view",
      "type": "function"
    },
    {
      "inputs": [
        {
          "internalType": "address",
          "name": "",
          "type": "address"
        }
      ],
      "name": "isEligible",
      "outputs": [
        {
          "internalType": "bool",
          "name": "",
          "type": "bool"
        }
      ],
      "stateMutability": "view",
      "type": "function"
    },
    {
      "inputs": [
        {
          "internalType": "bytes32",
          "name": "",
          "type": "bytes32"
        }
      ],
      "name": "votesReceived",
      "outputs": [
        {
          "internalType": "uint256",
          "name": "",
          "type": "uint256"
        }
      ],
      "stateMutability": "view",
      "type": "function"
    },
    {
      "inputs": [
        {
          "internalType": "address",
          "name": "_voter",
          "type": "address"
        }
      ],
      "name": "registerVoter",
      "outputs": [],
      "stateMutability": "nonpayable",
      "type": "function"
    },
    {
      "inputs": [
        {
          "internalType": "bytes32",
          "name": "_candidate",
          "type": "bytes32"
        },
        {
          "internalType": "string",
          "name": "_voterName",
          "type": "string"
        },
        {
          "internalType": "string",
          "name": "_candidateName",
          "type": "string"
        },
        {
          "internalType": "string",
          "name": "_cnic",
          "type": "string"
        }
      ],
      "name": "vote",
      "outputs": [],
      "stateMutability": "nonpayable",
      "type": "function"
    },
    {
      "inputs": [
        {
          "internalType": "bytes32",
          "name": "_candidate",
          "type": "bytes32"
        }
      ],
      "name": "getVoteCount",
      "outputs": [
        {
          "internalType": "uint256",
          "name": "",
          "type": "uint256"
        }
      ],
      "stateMutability": "view",
      "type": "function"
    }
  ],
  "bytecode": "0x608060405234801561001057600080fd5b50610c2a806100206000396000f3fe608060405234801561001057600080fd5b506004361061007d5760003560e01c806366e305fd1161005b57806366e305fd146100fe5780637021939f1461012e5780638bc0a8c71461015e578063a16959931461017a5761007d565b806309eef43e1461008257806338db6dd3146100b257806358675355146100ce575b600080fd5b61009c6004803603810190610097919061060d565b6101aa565b6040516100a991906108ee565b60405180910390f35b6100cc60048036038101906100c7919061060d565b6101ca565b005b6100e860048036038101906100e3919061070a565b610224565b6040516100f591906108ee565b60405180910390f35b6101186004803603810190610113919061060d565b61025a565b60405161012591906108ee565b60405180910390f35b61014860048036038101906101439190610636565b61027a565b60405161015591906109d7565b60405180910390f35b6101786004803603810190610173919061065f565b610292565b005b610194600480360381019061018f9190610636565b61055e565b6040516101a191906109d7565b60405180910390f35b60006020528060005260406000206000915054906101000a900460ff1681565b60018060008373ffffffffffffffffffffffffffffffffffffffff1673ffffffffffffffffffffffffffffffffffffffff16815260200190815260200160002060006101000a81548160ff02191690831515021790555050565b6003818051602081018201805184825260208301602085012081835280955050505050506000915054906101000a900460ff1681565b60016020528060005260406000206000915054906101000a900460ff1681565b60026020528060005260406000206000915090505481565b600160003373ffffffffffffffffffffffffffffffffffffffff1673ffffffffffffffffffffffffffffffffffffffff16815260200190815260200160002060009054906101000a900460ff1661031e576040517f08c379a000000000000000000000000000000000000000000000000000000000815260040161031590610997565b60405180910390fd5b6000803373ffffffffffffffffffffffffffffffffffffffff1673ffffffffffffffffffffffffffffffffffffffff16815260200190815260200160002060009054906101000a900460ff16156103aa576040517f08c379a00000000000000000000000000000000000000000000000000000000081526004016103a190610977565b60405180910390fd5b6003816040516103ba91906108d7565b908152602001604051809103902060009054906101000a900460ff1615610416576040517f08c379a000000000000000000000000000000000000000000000000000000000815260040161040d906109b7565b60405180910390fd5b60026000858152602001908152602001600020600081548092919061043a90610b0e565b919050555060016000803373ffffffffffffffffffffffffffffffffffffffff1673ffffffffffffffffffffffffffffffffffffffff16815260200190815260200160002060006101000a81548160ff02191690831515021790555060016003826040516104a891906108d7565b908152602001604051809103902060006101000a81548160ff0219169083151502179055503373ffffffffffffffffffffffffffffffffffffffff167fc78796858497f000f0a77d7f0c624bbaf635bf26239188e8fba52c571db2398d856040516105139190610909565b60405180910390a27f5b5241f586e6b9623e00d29836b50c8cad7ea3fe0b7e5b0bc74c75694d7fbc67833384426040516105509493929190610924565b60405180910390a150505050565b600060026000838152602001908152602001600020549050919050565b600061058e61058984610a23565b6109f2565b9050828152602081018484840111156105a657600080fd5b6105b1848285610acc565b509392505050565b6000813590506105c881610bc6565b92915050565b6000813590506105dd81610bdd565b92915050565b600082601f8301126105f457600080fd5b813561060484826020860161057b565b91505092915050565b60006020828403121561061f57600080fd5b600061062d848285016105b9565b91505092915050565b60006020828403121561064857600080fd5b6000610656848285016105ce565b91505092915050565b6000806000806080858703121561067557600080fd5b6000610683878288016105ce565b945050602085013567ffffffffffffffff8111156106a057600080fd5b6106ac878288016105e3565b935050604085013567ffffffffffffffff8111156106c957600080fd5b6106d5878288016105e3565b925050606085013567ffffffffffffffff8111156106f257600080fd5b6106fe878288016105e3565b91505092959194509250565b60006020828403121561071c57600080fd5b600082013567ffffffffffffffff81111561073657600080fd5b610742848285016105e3565b91505092915050565b61075481610a7a565b82525050565b61076381610a8c565b82525050565b61077281610a98565b82525050565b600061078382610a53565b61078d8185610a5e565b935061079d818560208601610adb565b6107a681610bb5565b840191505092915050565b60006107bc82610a53565b6107c68185610a6f565b93506107d6818560208601610adb565b80840191505092915050565b60006107ef601783610a5e565b91507f596f75206861766520616c726561647920766f7465642e0000000000000000006000830152602082019050919050565b600061082f601d83610a5e565b91507f596f7520617265206e6f7420656c696769626c6520746f20766f74652e0000006000830152602082019050919050565b600061086f602d83610a5e565b91507f596f75206861766520616c726561647920766f7465642077697468207468697360008301527f20434e4943206e756d6265722e000000000000000000000000000000000000006020830152604082019050919050565b6108d181610ac2565b82525050565b60006108e382846107b1565b915081905092915050565b6000602082019050610903600083018461075a565b92915050565b600060208201905061091e6000830184610769565b92915050565b6000608082019050818103600083015261093e8187610778565b905061094d602083018661074b565b818103604083015261095f8185610778565b905061096e60608301846108c8565b95945050505050565b60006020820190508181036000830152610990816107e2565b9050919050565b600060208201905081810360008301526109b081610822565b9050919050565b600060208201905081810360008301526109d081610862565b9050919050565b60006020820190506109ec60008301846108c8565b92915050565b6000604051905081810181811067ffffffffffffffff82111715610a1957610a18610b86565b5b8060405250919050565b600067ffffffffffffffff821115610a3e57610a3d610b86565b5b601f19601f8301169050602081019050919050565b600081519050919050565b600082825260208201905092915050565b600081905092915050565b6000610a8582610aa2565b9050919050565b60008115159050919050565b6000819050919050565b600073ffffffffffffffffffffffffffffffffffffffff82169050919050565b6000819050919050565b82818337600083830152505050565b60005b83811015610af9578082015181840152602081019050610ade565b83811115610b08576000848401525b50505050565b6000610b1982610ac2565b91507fffffffffffffffffffffffffffffffffffffffffffffffffffffffffffffffff821415610b4c57610b4b610b57565b5b600182019050919050565b7f4e487b7100000000000000000000000000000000000000000000000000000000600052601160045260246000fd5b7f4e487b7100000000000000000000000000000000000000000000000000000000600052604160045260246000fd5b6000601f19601f8301169050919050565b610bcf81610a7a565b8114610bda57600080fd5b50565b610be681610a98565b8114610bf157600080fd5b5056fea26469706673582212204fc1dc8db02199e830b5257f1be283d280ed668c8d6e3debe64f6b75b4da7cac64736f6c63430008000033",
  "immutableReferences": {},
  "source": "// SPDX-License-Identifier: MIT\r\npragma solidity ^0.8.0;\r\n\r\ncontract Voting {\r\n    mapping(address => bool) public hasVoted;\r\n    mapping(address => bool) public isEligible;\r\n    mapping(bytes32 => uint256) public votesReceived;\r\n    mapping(string => bool) public cnicVoted; // New mapping to track CNIC votes\r\n\r\n    event Voted(address indexed voter, bytes32 candidate);\r\n    event VoteCast(string voterName, address voterAddress, string candidateName, uint256 timestamp);\r\n\r\n    modifier onlyEligible() {\r\n        require(isEligible[msg.sender], \"You are not eligible to vote.\");\r\n        _;\r\n    }\r\n\r\n    modifier notVoted() {\r\n        require(!hasVoted[msg.sender], \"You have already voted.\");\r\n        _;\r\n    }\r\n\r\n    function registerVoter(address _voter) external {\r\n        isEligible[_voter] = true;\r\n    }\r\n\r\n    function vote(bytes32 _candidate, string memory _voterName, string memory _candidateName, string memory _cnic) external onlyEligible notVoted {\r\n        require(!cnicVoted[_cnic], \"You have already voted with this CNIC number.\"); // Check if CNIC already voted\r\n        votesReceived[_candidate]++;\r\n        hasVoted[msg.sender] = true;\r\n        cnicVoted[_cnic] = true; // Mark CNIC as voted\r\n        emit Voted(msg.sender, _candidate);\r\n        emit VoteCast(_voterName, msg.sender, _candidateName, block.timestamp);\r\n    }\r\n\r\n    function getVoteCount(bytes32 _candidate) external view returns (uint256) {\r\n        return votesReceived[_candidate];\r\n    }\r\n}",
  "sourcePath": "D:\\blockchain\\5_votingSystem\\contracts\\Voting.sol",
  "compiler": {
    "name": "solc",
    "version": "0.8.0+commit.c7dfd78e.Emscripten.clang"
  },
  "schemaVersion": "3.4.16",
  "updatedAt": "2024-07-04T12:09:26.813Z",
  "devdoc": {
    "kind": "dev",
    "methods": {},
    "version": 1
  },
  "userdoc": {
    "kind": "user",
    "methods": {},
    "version": 1
  }
}